:100000000C942A000C9447000C9447000C94470071
:100010000C9447000C9447000C9447000C94470044
:100020000C9447000C9447000C9447000C94470034
:100030000C9447000C9447000C9447000C94470024
:100040000C9447000C9447000C9447000C94470014
:100050000C94470011241FBECFE5D8E0DEBFCDBF12
:1000600011E0A0E6B0E0E6E2FCE002C005900D92EF
:10007000AC33B107D9F711E0ACE3B1E001C01D9298
:10008000A534B107E1F70E94D5050C9411060C9434
:100090000000DF93CF93CDB7DEB72B970FB6F89460
:1000A000DEBF0FBECDBF998788871F821E821D824B
:1000B0001C821B821A828885998590933D018093CA
:1000C0003C011982BDC140913C0150913D018981A3
:1000D000282F30E0C901880F991F820F931F880FC6
:1000E000991FFA01E80FF91F8081282F30E03B8724
:1000F0002A878A859B858130910511F12A853B8568
:10010000223031052CF48A859B85009761F03EC032
:100110002A853B852230310501F18A859B85833014
:10012000910541F133C08BE390E09F838E8389E397
:1001300090E09D838C838AE390E09B838A8326C032
:1001400088E390E09F838E8386E390E09D838C8399
:1001500087E390E09B838A8319C085E390E09F83C7
:100160008E8383E390E09D838C8384E390E09B8384
:100170008A830CC082E390E09F838E8380E390E0CB
:100180009D838C8381E390E09B838A8340913C0133
:1001900050913D018981282F30E0C901880F991FB6
:1001A000820F931F880F991FFA01E80FF91F8281B0
:1001B000882309F098C0EA81FB818081682F4091F3
:1001C0003C0150913D018981282F30E0C901880F01
:1001D000991F820F931F880F991FFA01E80FF91FCB
:1001E0008181282F30E081E090E002C0880F991FC4
:1001F0002A95E2F780958623EA81FB8180834091EE
:100200003C0150913D018981282F30E0C901880FC0
:10021000991F820F931F880F991FFA01E80FF91F8A
:100220008481813029F5EE81FF818081682F4091A2
:100230003C0150913D018981282F30E0C901880F90
:10024000991F820F931F880F991FFA01E80FF91F5A
:100250008181282F30E081E090E0022E02C0880FDB
:10026000991F0A94E2F7862BEE81FF818083E5C017
:1002700040913C0150913D018981282F30E0C90116
:10028000880F991F820F931F880F991FFA01E80F9B
:10029000F91F8481882309F0D0C0EE81FF8180811D
:1002A000682F40913C0150913D018981282F30E019
:1002B000C901880F991F820F931F880F991FFA0198
:1002C000E80FF91F8181282F30E081E090E0022EB5
:1002D00002C0880F991F0A94E2F780958623EE8169
:1002E000FF818083AAC040913C0150913D018981EA
:1002F000282F30E0C901880F991F820F931F880FA4
:10030000991FFA01E80FF91F8281813009F095C029
:10031000EA81FB818081682F40913C0150913D0131
:100320008981282F30E0C901880F991F820F931F00
:10033000880F991FFA01E80FF91F8181282F30E0FB
:1003400081E090E002C0880F991F2A95E2F7862B82
:10035000EA81FB81808340913C0150913D0189817C
:10036000282F30E0C901880F991F820F931F880F33
:10037000991FFA01E80FF91F8381813029F5EE8179
:10038000FF818081682F40913C0150913D0189811E
:10039000282F30E0C901880F991F820F931F880F03
:1003A000991FFA01E80FF91F8181282F30E081E0C1
:1003B00090E0022E02C0880F991F0A94E2F7862B64
:1003C000EE81FF81808339C040913C0150913D0115
:1003D0008981282F30E0C901880F991F820F931F50
:1003E000880F991FFA01E80FF91F8381882329F5E7
:1003F000EE81FF818081682F40913C0150913D0149
:100400008981282F30E0C901880F991F820F931F1F
:10041000880F991FFA01E80FF91F8181282F30E01A
:1004200081E090E0022E02C0880F991F0A94E2F743
:1004300080958623EE81FF81808389818F5F898308
:100440008981803208F43FCE2B960FB6F894DEBF38
:100450000FBECDBFCF91DF910895DF93CF9300D032
:10046000CDB7DEB79A83898389819A8190933F01C2
:1004700080933E010F900F90CF91DF910895DF930D
:10048000CF9300D000D000D0CDB7DEB78B836C8384
:100490001A82198220913E0130913F018B81882F71
:1004A00090E0880F991FF901E80FF91F8081282F2C
:1004B00030E03E832D838D819E8181309105D1F086
:1004C0002D813E81223031052CF48D819E81009753
:1004D00061F01EC02D813E812230310581F08D8179
:1004E0009E818330910581F013C08BE390E09A8365
:1004F00089830EC088E390E09A83898309C085E3ED
:1005000090E09A83898304C082E390E09A83898390
:100510008C81813001F5E981FA818081482F209119
:100520003E0130913F018B81882F90E0880F991F09
:10053000F901E80FF91F8181282F30E081E090E078
:10054000022E02C0880F991F0A94E2F7842BE981DA
:10055000FA81808323C08C81882301F5E981FA81A7
:100560008081482F20913E0130913F018B81882F5F
:1005700090E0880F991FF901E80FF91F8181282F5A
:1005800030E081E090E0022E02C0880F991F0A94AB
:10059000E2F780958423E981FA81808326960FB65D
:1005A000F894DEBF0FBECDBFCF91DF910895DF93EA
:1005B000CF9300D000D000D0CDB7DEB78C831B82A4
:1005C0001A82198220913E0130913F018C81882F3F
:1005D00090E0880F991FF901E80FF91F8081282FFB
:1005E00030E03E832D838D819E8181309105D1F055
:1005F0002D813E81223031052CF48D819E81009722
:1006000061F01EC02D813E812230310581F08D8147
:100610009E818330910581F013C089E390E09B8334
:100620008A830EC086E390E09B838A8309C083E3BC
:1006300090E09B838A8304C080E390E09B838A835D
:10064000EA81FB818081482F50E020913E0130916A
:100650003F018C81882F90E0880F991FF901E80FE6
:10066000F91F8181282F30E081E090E002C0880FDF
:10067000991F2A95E2F74823592320913E01309192
:100680003F018C81882F90E0880F991FF901E80FB6
:10069000F91F8181882F90E09A0102C03595279536
:1006A0008A95E2F7C9018130910519F481E08983C7
:1006B00001C01982898126960FB6F894DEBF0FBE5D
:1006C000CDBFCF91DF910895DF93CF93CDB7DEB744
:1006D00028970FB6F894DEBF0FBECDBF8E831D8264
:1006E0001C821B821A82198220913E0130913F01A7
:1006F0008E81882F90E0880F991FF901E80FF91F6C
:100700008081282F30E038872F838F819885813032
:100710009105F1F02F813885223031052CF48F813D
:100720009885009761F02EC02F81388522303105E1
:10073000C1F08F81988583309105E1F023C08BE370
:1007400090E09D838C8389E390E09B838A831AC029
:1007500088E390E09D838C8386E390E09B838A838B
:1007600011C085E390E09D838C8383E390E09B83BD
:100770008A8308C082E390E09D838C8380E390E0CD
:100780009B838A83EA81FB818081482F50E02091FE
:100790003E0130913F018E81882F90E0880F991F94
:1007A000F901E80FF91F8181282F30E081E090E006
:1007B00002C0880F991F2A95E2F7482359232091F8
:1007C0003E0130913F018E81882F90E0880F991F64
:1007D000F901E80FF91F8181882F90E09A0102C08A
:1007E000359527958A95E2F7C9018130910511F574
:1007F000EC81FD818081482F20913E0130913F01A5
:100800008E81882F90E0880F991FF901E80FF91F5A
:100810008181282F30E081E090E0022E02C0880F15
:10082000991F0A94E2F780958423EC81FD818083EF
:10083000198221C0EC81FD818081482F20913E01E9
:1008400030913F018E81882F90E0880F991FF90128
:10085000E80FF91F8181282F30E081E090E0022E1F
:1008600002C0880F991F0A94E2F7842BEC81FD8166
:10087000808381E08983898128960FB6F894DEBF52
:100880000FBECDBFCF91DF910895DF93CF93CDB74A
:10089000DEB78AE690E00E9449008AE291E00E9479
:1008A0002D02CF91DF910895DF93CF93CDB7DEB7BF
:1008B0002A970FB6F894DEBF0FBECDBF89876A872F
:1008C0008A858A3008F058C019822DC08981682F26
:1008D00070E08A85882F90E0FC01E05AFF4F80810C
:1008E000482F50E08981282F30E081E090E002C05D
:1008F000880F991F2A95E2F79A01282339238981C5
:10090000882F90E0A90102C0559547958A95E2F796
:10091000CA01282FCE010296FC01E60FF71F2083A3
:1009200089818F5F89838981883080F289858823D6
:1009300019F59A8182E0692F0E943F029B8183E032
:10094000692F0E943F029C8184E0692F0E943F0230
:100950009D8185E0692F0E943F029E8186E0692F7C
:100960000E943F029F8187E0692F0E943F02988585
:1009700088E0692F0E943F022A960FB6F894DEBFE6
:100980000FBECDBFCF91DF910895DF93CF9300D0FD
:1009900000D0CDB7DEB78C838C818B831A8281E047
:1009A00089838A818F5F8A838C819AE0692F0E9474
:1009B000DE058B838B818823A1F78A81823018F52D
:1009C00081E089831CC08C81482F50E08981882F69
:1009D00090E09C01220F331FC901880F991F880FD7
:1009E000991F280F391FCA01B9010E94EA058B839C
:1009F00089816B810E94540489818F5F89839981E9
:100A00008A81891700F70F900F900F900F90CF9168
:100A1000DF910895DF93CF93CDB7DEB78AE690E0FC
:100A20000E9449008AE291E00E942D020E94340552
:100A3000CF91DF910895DF93CF930F92CDB7DEB7BB
:100A400080E00E94D702898389810F90CF91DF9146
:100A50000895DF93CF93CDB7DEB780E061E00E94C9
:100A60003F02CF91DF910895DF93CF93CDB7DEB7EB
:100A700080E060E00E943F02CF91DF910895DF9314
:100A8000CF930F92CDB7DEB780E00E9464038983D5
:100A90000F90CF91DF910895DF93CF93CDB7DEB75D
:100AA0008AE690E00E9449008AE291E00E942D02CD
:100AB0000E943405CF91DF910895DF93CF930F9279
:100AC000CDB7DEB781E00E94D702898389810F907C
:100AD000CF91DF910895DF93CF93CDB7DEB70E941A
:100AE0000A050E944C05CF91DF910895DF93CF93C3
:100AF000CDB7DEB70E944504CF91DF910895DF9313
:100B0000CF930F92CDB7DEB70E941B0589830E9459
:100B10005D058093400180914001813061F48091B6
:100B20004101882341F48981813019F40E94340500
:100B300002C00E94290580914001809341010F90DD
:100B4000CF91DF910895DF93CF93CDB7DEB785E0E6
:100B50000E94C504CF91DF910895DF93CF930F9248
:100B6000CDB7DEB70E945D058093430180914301BC
:100B7000813049F480914401882329F48091420115
:100B80008F5F80934201809142018A3010F0109271
:100B90004201809142010E94C504809143018093EB
:100BA00044010F90CF91DF910895DF93CF93CDB79C
:100BB000DEB70E9476050E94AD05FDCF991B79E056
:100BC00004C0991F961708F0961B881F7A95C9F7DD
:100BD0008095089597FB092E07260AD077FD04D04B
:100BE0000CD006D000201AF4709561957F4F0895BF
:100BF000F6F7909581959F4F0895AA1BBB1B51E175
:100C000007C0AA1FBB1FA617B70710F0A61BB70B7C
:100C1000881F991F5A95A9F780959095BC01CD0121
:060C20000895F894FFCFD7
:100C26003F065B4F666D7D077F6F0000000000008A
:100C360000010000000000020000000000030000A8
:100C4600000000040000000000050000000000068F
:100C56000000000000070000000001000100000085
:100C66000101010000000102010000000103010072
:100C7600000001040100000001050100000001065A
:100C86000100000001070000000002000101000051
:100C96000201000000000202000000000203000042
:100CA6000000020400000000020500000000020629
:100CB6000000000002070000000003000000010021
:100CC600030100000000030200000000030300000F
:100CD60000000304000000000305000000000306F6
:100CE60000000000030700000000020002010100EE
:0C0CF600010101020103010401050106D7
:00000001FF
